:020000040002F8
:10600000B0580020F962020001630200036302003D
:10601000056302000763020009630200000000003C
:106020000000000000000000000000000B63020000
:106030000D630200000000000F6302001163020004
:106040008D65020013630200896902001363020078
:106050001363020013630200C563020013630200AE
:106060001363020013630200136302001363020050
:106070001363020013630200136302001363020040
:1060800013630200E565020013630200136302005C
:106090006566020013630200696602001363020072
:1060A0001363020013630200136302001363020010
:1060B00013630200136302000000000000000000F0
:1060C00013630200136302001363020013630200F0
:1060D0001363020013630200136302000000000058
:1060E00000000000000000000000000000000000B0
:1060F00000000000000000000000000000000000A0
:10610000000000000000000000000000000000008F
:10611000000000000000000000000000000000007F
:10612000000000000000000000000000000000006F
:10613000000000000000000000000000000000005F
:10614000000000000000000000000000000000004F
:10615000000000000000000000000000000000003F
:10616000000000000000000000000000000000002F
:10617000000000000000000000000000000000001F
:10618000000000000000000000000000000000000F
:1061900000000000000000000000000000000000FF
:1061A00000000000000000000000000000000000EF
:1061B00000000000000000000000000000000000DF
:1061C00000000000000000000000000000000000CF
:1061D00000000000000000000000000000000000BF
:1061E00000000000000000000000000000000000AF
:1061F000000000000000000000000000000000009F
:10620000DFF80CD000F0CCF800480047A183020072
:10621000B058002030B4044654E8000F0D4644E85E
:106220000053002BF8D1156030BC704730B40446E1
:1062300054E8000F40EA010544E80053002BF7D171
:10624000156030BC704730B4044654E8000F00EAD3
:10625000010544E80053002BF7D1156030BC7047AE
:1062600030B4044654E8000F80EA010544E80053C6
:10627000002BF7D1156030BC704730B4044654E8A9
:10628000000F00EB010544E80053002BF7D1156027
:1062900030BC704730B4044654E8000FA0EB010551
:1062A00044E80053002BF7D1156030BC704770B440
:1062B00004464FF0000054E8006F0D68AE4207BF7F
:1062C00044E80023012044E800630E60002B1CBF5B
:1062D0000020F0E770BC704730B4044654E8000F6B
:1062E00088422CBF451A054644E80053002BF5D1DF
:1062F000156030BC704700000648804706480047DC
:10630000FEE7FEE7FEE7FEE7FEE7FEE7FEE7FEE765
:10631000FEE7FEE76D66020001620200004870477A
:10632000E0AE020040EA01039B0703D009E008C980
:10633000121F08C0042AFAD203E011F8013B00F84A
:10634000013B521EF9D27047D2B201E000F8012B96
:10635000491EFBD270470022F6E710B513460A46E5
:1063600004461946FFF7F0FF204610BD30B505463C
:106370002A460B4612F8010B13F8014B08B1A04254
:10638000F8D01CB1002802D06D1CF1E7284630BDC2
:10639000421C10F8011B0029FBD1801A7047000035
:1063A000064C074D06E0E06840F0010394E8070062
:1063B00098471034AC42F6D3FFF726FF30B6020000
:1063C00050B602002DE9F04700268AB0DFF8509160
:1063D000B0464FF48075012437460696284602F0F1
:1063E00081FD38B1D9F80403204203D0284602F0D9
:1063F0006FFD26432D1D64007F1CADB2082FEDD329
:106400004FF4BE74204602F06DFD48B1204602F004
:106410005FFD46F0004606AA0121002002F044FD7F
:10642000404D16F0FF0F15D00127002437420DD044
:1064300009EB8401D1F81005D1F81015C0F3042040
:1064400055F82420C1F3014102B190477F00641C3C
:10645000082CEBD3002E5FDA4FF0FF30CDF8108020
:1064600054E0281910F8507F90F9000027F0C00878
:10647000401C3BD007A9404602F0C7F910B34FEAD1
:106480009719404601F02CFB55F820701FB1B9F167
:10649000030F03D006E0B9F1030F27D104A940464A
:1064A00002F0BBF94FF0A04101EB8800D0F80007E3
:1064B00006A9C0F3014A404602F0A7F918B1BAF1A3
:1064C000020F03D012E0BAF1030F0FD1B9F1030F9D
:1064D00008D1BAF1020F1DD00221404602F0C4FCDF
:1064E000761CF6B217B149464046B847641C042CE6
:1064F000B7D3002E10D06A460121002002F0D4FC50
:1065000006990098884207D00690049800263446E1
:106510000790A6E70321E0E70AB0BDE8F087000096
:1065200000600040642F002000F01F020121914014
:106530004009800000F1E020C0F88012704700F0B0
:106540001F02012191404009800000F1E020C0F8C5
:106550000011704700F01F020121914040098000A6
:1065600000F1E020C0F8001270474907090E00282A
:1065700006DA00F00F0000F1E02080F8141D7047EB
:1065800000F1E02080F800147047000070B54FF46F
:106590008076304602F088FA114CB50560B130467D
:1065A00002F089FA0120C5F80803607920B90120BA
:1065B00060712168002088474FF48276304602F0EF
:1065C00073FA00280AD0304602F075FA0220C5F8A6
:1065D00008032168BDE870400120084770BD000035
:1065E000102B002007480021C0F84011C0F84411CA
:1065F000C0F84811C0F84C11C0F80011C0F80411DF
:1066000004F008B80010014070B50E46144900EBC4
:10661000400001EBC0051446E86A183520B1012896
:106620000FD0022805D113E0284600F0B3F9A042AC
:1066300001D2002411E022463146284600F0E2F95A
:106640000BE0284600F0A6F9A042F4D20446F2E797
:106650003146284600F0A9F90446204670BD0000E6
:106660002836002003F024BF03F004B9F0B5B54884
:106670000023021D0178101D01254FF080540629CA
:106680000BD11678360708D10678C6F30316032E09
:1066900006D0042E04D0052E02D0062907D00EE025
:1066A000B4F82463A84FC6F304263E6002E01678CF
:1066B000360704D10678C6F30316032E02D0062946
:1066C00004D00FE0A24FA14E7E670EE01678360789
:1066D00008D10678C6F30316032E06D0042E04D084
:1066E000052E02D0062907D00EE0D4F84462994F57
:1066F000C6F342363E6002E01678360704D10678CB
:10670000C6F30316032E02D0062906D011E0924EDE
:10671000376827F0807737600EE01678360708D1A3
:106720000678C6F30316032E06D0042E04D0052ED9
:1067300002D006290AD011E04FF08046C6F80C318D
:10674000C6F81031834E361F336002E016783607E4
:1067500004D10678C6F30316032E02D0062905D00D
:106760000CE07C4F032664373E600AE0167836075B
:1067700004D10678C6F30316032E02D006290DD0E5
:1067800014E0764F05263E60744E78363560734EC1
:10679000083633603F263F1D3E6002E0167836071C
:1067A00004D10678C6F30316052E02D0062957D069
:1067B00062E06B4E36686B4F3E60694E361D366840
:1067C0003F1D3E60664E083636683F1D3E60644E93
:1067D0000C3636683F1D3E60614E103636683F1DF0
:1067E0003E605F4E143636683F1D3E605C4E183684
:1067F00036685C4F20373E60594E1C3636683F1D68
:106800003E60574E203636683F1D3E60544E24365B
:1068100036683F1D3E60524E283636683F1D3E604A
:106820004F4E2C3636683F1D3E604D4E3036366832
:106830004C4F40373E604A4E343636683F1D3E600E
:10684000474E383636683F1D3E60454E3C3636680A
:106850003F1D3E60424E403636683F1D3E6002E0BE
:106860001678360708D10678C6F30316032E06D02D
:10687000042E04D0052E02D0062907D019E0D4F842
:106880005812394A01F04F01116002E011780907EE
:106890000FD10078C0F30310032803D0042801D0DF
:1068A000052806D131480168C90702D06FF00101FF
:1068B0000160D4F83001062808D1D4F83401062844
:1068C00004D12B48016841F480610160224874388A
:1068D000016841F470010160BFF34F8FBFF36F8F08
:1068E0004FF01021D1F80002002803DBD1F8040298
:1068F000002822DA1F4A15601F480468002CFCD0CB
:106900001524C1F800420568002DFCD0C1F80442EE
:1069100001680029FCD0136001680029FCD0BFF396
:106920004F8F0D48F0380168144A01F4E0611143BB
:106930000160BFF34F8F00BFFDE7124910480860A8
:10694000F0BD0000E00F00F0403501400DF0ADBAA1
:1069500000C007403C050040FCED00E01056004040
:106960000404001020C50040E40E00400004004074
:106970003C17004004E5014000E401400400FA0532
:106980000090D003BC2B00200148006800470000A5
:10699000182B00200269C1688A4203D88068401A17
:1069A000104400E0501A401E70472DE9F047C468BB
:1069B0001746894606464FF000083069A04201D9C3
:1069C000051B02E0B168201A0D1AB0686D1E001B8D
:1069D000A84200D80546BD4200D33D4670682A460D
:1069E00020444946FFF79EFCB0687F1B2C44A84416
:1069F000A944A04200D10024F460002FDDD140461C
:106A0000BDE8F0872DE9F04104468846D4E9020745
:106A1000C51BE168606816460844B54206D9414680
:106A2000FFF780FCB819E060BDE8F0812A464146D6
:106A3000FFF778FC761B08EB050132466068FFF72C
:106A400071FCE660F0E70000014A024900F026B858
:106A5000E77F0200282B002002E008C8121F08C1AF
:106A6000002AFAD170477047002001E001C1121FCF
:106A7000002AFBD1704700000121202803DA814061
:106A80000548014003E0402802DA2038814009B17E
:106A90000120704700207047FC06FFBD2DE9F04142
:106AA00016460F460446002503E03946B047641CED
:106AB0006D1C20780028F8D12846BDE8F08110B57B
:106AC00001220221002000F07FFF08B1072810D129
:106AD00007220221012000F077FF08B1072808D122
:106AE00000210A22084600F06FFF08B1072800D1F4
:106AF000002010BD72B602F025FC00BF02F084FA3F
:106B00000028FBD111481249401AC408012000EBAB
:106B1000044010A102F092FB11480068C00700D0A9
:106B200000BE022000EB04400EA102F087FBBFF381
:106B30004F8F0B48E43801680E4A01F4E0611143BD
:106B40000160BFF34F8F00BFFDE70000A8B6020051
:106B500060B60200466174616C206572726F7200EB
:106B6000F0ED00E053797374656D207265736574A0
:106B7000000000000400FA050EB500210091CDE9E7
:106B800001106A4644F20100FFF7B4FF0EBD10B5D4
:106B90008268C368934203D001F0FEF9002010BD63
:106BA000052010BD10B58268C3689A1A83889A427E
:106BB00003D801F0FBF9002010BD042010BD000037
:106BC000084B9B7823B12AB120B10068037C1BB12C
:106BD0000820704707207047002303744174426106
:106BE00018467047F82F002070B503F0B3FA10482C
:106BF00000240B21047044700E4D817014206C60D1
:106C00002C706C70FFF790FC06211420FFF7ADFC90
:106C10001420FFF794FC0848046006211120FFF7B8
:106C2000A4FC0548001F0068A860002070BD00009B
:106C3000F82F0020482B0020081501402DE9FC47C3
:106C4000DFF8789099F8023073B368B3052902D25F
:106C50000720BDE8FC87436933B3437C012B25D073
:106C6000002704460025884616468DF800506846E1
:106C700000F062F801A803F035FFC8B101210170EE
:106C80000F4944600968C0E90218C0E904769DF81C
:106C9000040089F801009DF8000000F071F814204C
:106CA000FFF758FC2846D4E70820D2E70F46D8E77C
:106CB00004259DF8000000F063F8F3E7F82F0020AA
:106CC000041501400649897839B130B1416921B1D3
:106CD00000210174022103F079BC082070470000F4
:106CE000F82F002010B501461048FFF75BFF0400A5
:106CF00019D10F480F4A0178515C19B1001D03F0FA
:106D000013F802E00C3002F079FF60B90849074837
:106D10000839FFF73CFF30B905490122083904481A
:106D200001F03AFF0446204610BD0000E82F002085
:106D3000342B0020042B002030B5EFF3108172B605
:106D40000D4A9468012324B10370002900D162B672
:106D500030BD93604FF0E023D3F88051074C2540BD
:106D60001560C3F88041D3F8844154605A17C3F8C2
:106D7000842100220270E8E7CC2F0020FC06FFBD32
:106D80000B498A68002A11D000280FD1EFF3108038
:106D900072B60B684FF0E022C2F800314B68C2F8BF
:106DA000043100228A60002800D162B670470000DA
:106DB000CC2F00202DE9F041064608680C46411C06
:106DC0004FF0A0474FF0010506D005FA00F1C7F8D3
:106DD0000815206802F034F86068411C02D00021D8
:106DE00002F014F83168A069C1F82405607D217DA6
:106DF00032680843C2F86C05D4E900123068C0F864
:106E00000C15C0F81425207D012815D1A068411C5F
:106E100002D0002101F0FAFFE068411C05D0854056
:106E2000C7F80855E06802F00BF8D4E902123068A0
:106E3000C0F80825C0F81015BDE8F0812DE9F04133
:106E4000064608680C46411C4FF0A0474FF001056C
:106E500006D005FA00F1C7F80815206801F0FAFF1E
:106E60006068411C02D0002101F0D9FF3168A0699F
:106E7000C1F82405607D227D31681043C1F86C059E
:106E8000D4E900123068C0F81425C0F80C15207D34
:106E9000012815D1A068411C02D0002101F0BFFFDC
:106EA000E068411C05D08540C7F80855E06801F04E
:106EB000D1FFD4E902123068C0F80825C0F81015D7
:106EC000BDE8F08170B51500044609D000202860A7
:106ED00034B1206820B1A079800703D0072070BDAD
:106EE0000E2070BD084600F009FBC0B2142804D083
:106EF0002179814203D8042070BD052070BDE2884D
:106F0000216800FB02102860002070BD2DE9FC47BD
:106F1000002517880646158090F82D0014468946EE
:106F200030B13A462146484600F0FCFA051E09D128
:106F3000B0784FF00C0A18B32088C846001DB8423C
:106F400002D95046BDE8FC87684679DF0028F9D1B0
:106F50002088032108F8001020881921401C80B2E5
:106F6000208008F800102088401C80B2208000EBB0
:106F70000801BDF8000003F004FD218808442080CA
:106F8000F0780222C8B1218896F9033001F1030C90
:106F90004846BC45D5D8425421884FF0010C491CC5
:106FA00089B2218000F801C02188491C89B2218062
:106FB00009F801302088401C20807068B8B1218811
:106FC00090F9003001F1030C4846BC45B9D8425451
:106FD00021880A22491C89B2218042542188491CF7
:106FE00089B2218009F801302088401C2080308936
:106FF00050B1CDE900474B460622022106F10800B8
:1070000003F088FD051E9DD1308A50B1CDE90047BF
:107010004B460722032106F1100003F07BFD051EFD
:1070200090D1308B50B1CDE900474B461522142149
:1070300006F1180003F06EFD051E83D1306A30B1F1
:107040003B462246494600F0B2FE051EDBD1706A7F
:1070500030B13B462246494601F078FA051ED2D1AE
:1070600096F82C0038B13B4622464946304603F09C
:1070700045F9051EC7D1307838B13B46224649460E
:10708000304601F0EDFA051EBDD128465AE718B585
:1070900004460020ADF8000013466A46204600F082
:1070A00006F8002802D0BDF80000204418BD70B5D5
:1070B00088B182B10024158803E0065D641C344465
:1070C000A4B2A54203D8061976789E4201D08C421C
:1070D000F3D38C4201D3002070BDA11C1180005D50
:1070E000401E80B270BD80F8301070472DE9F04727
:1070F0000D00044606D02CB195F87A000026012830
:1071000003D006E00E20BDE8F08795F8980001282E
:1071100029D0D5F8A000042825D0D5F89C00042853
:1071200021D04FF00109A6702C2205F17801201D15
:10713000FFF7F8F884F83060D5F8A4006063D5F85C
:10714000A800A0634FF6FF70A4F8480204F50D7084
:10715000C4F84402C4F84A62A4F84E6284F850624B
:10716000207810B104E00720CDE7FF2084F8540018
:1071700004F15501C4F8341294F82400EE274FF0BE
:107180001F08012833D0A4F8388200BF04F50E721E
:107190002846FFF7BBFE0028B5D104F24311C4F81E
:1071A0003C1294F82400012824D0A4F8408200BFA7
:1071B00004F5107205F13C00FFF7A8FE0028A2D1EB
:1071C00084F85190208BA4F8480084F83C90266401
:1071D00084F85060606960644D4604F13C0200210F
:1071E00004F1540072DF00288DD125708BE7A4F8DC
:1071F0003872CBE7A4F84072DAE710B50288102A9B
:107200001BD0112A20D0262A1DD1007A0C46012835
:1072100001D0022817D1A0780521401CB0FBF1F263
:1072200001FB1201204600F01EF800280BD0A16BD4
:10723000002908D0BDE810400847C27B012A02D1CE
:107240008088A1F8480210BD0C46002184F8521233
:107250008088B4F848128842F5D120790028F2D10C
:107260000121DFE770472DE9F05F044600780F4603
:1072700098B1A7700025C4F84A52A4F84E5284F879
:107280005052A079012608B1012F09D0E07980B1D0
:10729000012F05D0022F03D00BE00820BDE8F09F9E
:1072A000616B21B184F851620820884701E084F8BD
:1072B000515204F24B2100200A5C0AB1304603E02F
:1072C000401C0628F8D300204FF002084FF0030BB3
:1072D000012F06D0022F0CD0032F0FD0042F15D171
:1072E00010E0A17929B194F8241011B908B1304601
:1072F0000DE0E17911B108B1404608E0207A08B10B
:10730000584604E0607A08B1042000E02846A070E6
:10731000616B41B1032801D0042804D1607910B118
:1073200094F85202A0B184F8535204F13C001821A1
:107330000746FFF710F804F12C0084F83C60814602
:1073400002F088FE58B194F82C0084F8510008E04F
:1073500084F8545284F8536207208847E5E784F89C
:10736000516094F8240050B1484602F073FE20B1F9
:1073700094F8280084F8520001E084F8526084F800
:107380005050A27804F24A2104F50D794FF0060A14
:10739000052A62D2DFE802F07A030F22410084F866
:1073A0003160C4F84452C4E9101584F83C80802050
:1073B000A4F8480053E084F8318094F8242038463B
:1073C00012B10722027001E080F800B0228A8281A7
:1073D000C4F844524160E168B96040E06069B86057
:1073E000208BB88194F824003D4610B184F83CA06D
:1073F00001E084F83C60204603F056FB50B185F86C
:1074000014800421204600F0DAFD30BB052184F809
:10741000311020E084F831B01DE0E069B860208CC4
:10742000B88194F824003D4610B184F83CA001E0F6
:1074300084F83C60204603F037FB48B185F814809F
:107440000421204600F0BBFD38B984F831A002E0E9
:10745000042084F83100C4F84492A07878B13A4608
:1074600004F15400D4F8441272DF00287FF416AF00
:1074700094F8301094F8540073DF0028F6D1616B53
:1074800011B194F831008847002007E784F83150A3
:10749000F5E7000070B5040012D001461C22144824
:1074A000FEF740FF1248134D0560206850B17ADFA7
:1074B000002806D12068016829604068686005E0FE
:1074C0000E2070BD0B487BDF0028FAD108484FF62C
:1074D000FF711438084A20F8041B0549343901604B
:1074E0000021FFF76DFB0028EBD0032070BD0000EA
:1074F0006C2E0020FC2A002041AA020010B5044690
:1075000000F006F808B1204610BD142010BD0000A0
:10751000142801D3002070470146014801F0FEB84D
:107520008C2E00207CB5054608880C460930904218
:1075300001D90C207CBD68466DDF0028FAD1218876
:107540000820685420881B21401C80B220802954C8
:107550002088401C80B220802844DDF801100160A2
:10756000BDF8051081802088801D80B220809DF8A4
:107570000010490800D0012129542088401C208097
:1075800000207CBD38B51F4A01881488212925D0E8
:1075900010DC102918D011291CD013291DD100236B
:1075A0001A46852120467FDF002816D0BDE83840E6
:1075B000FFF7E2BA3B2921D0522919D056290CD124
:1075C0008088132176DFEFE7818811800E4801F073
:1075D000F3F9E9E74FF6FF70108038BD0021009104
:1075E000808869468FDF0028F7D0FFF7C5FA38BDDD
:1075F00000231A4619462046B1DFD5E780881321BB
:1076000076DFD1E7A02A0020D42B002010B51A4C39
:107610000188606810290ED011292BD1401E6060AE
:1076200028D1FFF74CFA002824D02168002921D066
:10763000BDE810400847D0B900210122084600F0FB
:10764000C3F908B107280FD107220221012000F059
:10765000BBF908B1072807D104220221002000F05D
:10766000B3F920B1072802D0216801B188476068CA
:10767000401C606010BD0000F42A00202DE9F04796
:1076800001883B4E40F2F3194FF6FF7510291BD0CD
:1076900011293ED0122954D0502946D1C188F289EF
:1076A000841D914241D1618902293ED186883046AC
:1076B00000F0C8FC050038D004F10C0000F080F99F
:1076C000A8B3294630464EE0C17B8788044601298D
:1076D0002BD1A846284600F0B5FC050017D02F8016
:1076E00000202872234843464A460168C5F80A101C
:1076F0004068C5F80E0004F1100105F10A0000F021
:1077000057FD6872F08900280FD129462AE004202D
:1077100013E0808800F096FC040006D06068FFF754
:10772000D1FA08B102F0BAFD2580BDE8F087FFE785
:107730006868FFF7C7FA0028F7D0BDE8F04702F005
:10774000ADBD87880646384600F07CFC0400ECD0CE
:107750002B464A4606F1080104F10A0000F028FD14
:10776000607221463846BDE8F04700F067BB000074
:107770006C2E0020FC2A00202DE9F04F074685885A
:1077800002883D48012197B08346102A09D0112A6A
:1077900049D01A2A6CD1387AB1EB101F45D2012298
:1077A00044E0354C083CA068C0430B9061680BA8CE
:1077B00000F0D5FF0B990CA800F0DAFA2C220CA9E6
:1077C0006846FEF7AFFD0026E946A04610E000BF80
:1077D00009EB46005FF00004B0F804A008EB840059
:1077E0005146001D00F08FFF641C1D2CF6D3761C43
:1077F0000098B042ECD8142D05D317B00420BDE892
:10780000F04FFFF7B9B92946584600F092FF2946D4
:1078100008F1040000F08DFFF87B012828D01648FD
:107820002946001D15E029461AE000220221B1EB8D
:10783000101F01D2012600E000260F49083901F18E
:107840001000041D294682B100F073FF36B12946AD
:10785000204617B0BDE8F04F00F06BBF2946204628
:1078600017B0BDE8F04F00F04EBF00F04CFFF5E759
:1078700017B0BDE8F08F0000902E002070B5334D9A
:1078800004008EB02DCD08AE86E82D005BD0E9B3A4
:107890000868A061214608A862DF002851D120783D
:1078A00001258DF83200ADF83050A21C0CA92846F5
:1078B000A8DF002845D120216846FEF74CFD0220B4
:1078C000ADF8000020788DF802008DF80C509DF87E
:1078D0000D00F426ADF8046040F00C008DF8115056
:1078E000ADF806508DF80D008DF81250608804F147
:1078F0000C02694600F0FCF8002822D120216846DD
:10790000FEF729FD0320ADF8000000E01BE0207821
:107910008DF802008DF80C509DF80D008DF8115077
:10792000ADF8046040F010008DF81250ADF806502C
:107930008DF80D008DF813506088221D694600F007
:10794000D7F80EB070BD0E20FBE70000FCAB0200C4
:1079500070B588B00446002924D0002C22D00846F7
:107960002188102920D0502924D057291AD1054622
:10797000A188406906AAFFF7A5FA002812D1069E41
:10798000307800280ED018216846FEF7E4FC01206C
:107990008DF800000195A088ADF808000396A9694C
:1079A0006846884708B070BD08B02146BDE8704001
:1079B00002F02EBA08B02146BDE8704002F008BBC4
:1079C000007800F00100704770B50023022810D243
:1079D0000D4D00EB4004012A02D101290CD00022F8
:1079E000094E00EB4000304461B1012906D0022964
:1079F00006D00723184670BD0E30C2B22A55F9E7EB
:107A00004270F7E78270F5E7EC2A00202DE9F84391
:107A10000546861C00208DF8000090460F464FF06A
:107A200001096846FFF788F91B4C20683860D4E9E3
:107A30000001401AA16804F21C47081A0EE0012157
:107A4000384600F086FE00F05DFC0146384600F046
:107A500080FED4E90001401AA168081A401C864241
:107A6000EDD8B8F1000F03D0052065F3891002E0CE
:107A7000062065F39F50A2682168114004EB810144
:107A8000C8602068304420609DF80000FFF778F956
:107A90004846BDE8F8830000C431002070B50D46AB
:107AA00004460A2902D10D21FFF7F8FFA0682268D9
:107AB000411CA1601554D4E90101814204D3204640
:107AC000BDE8704001F085B870BD0000034803C8F0
:107AD000814201D10120704700207047C43100204D
:107AE0000249084490F9300070470000642F0020DC
:107AF0002DE9F0438146887891B090460C4600B954
:107B000001208DF83E002088ADF83C00002500954E
:107B1000607C694602F036FC6E46A07C711C02F067
:107B200031FCE07B00289DF8020002D040F0080004
:107B300001E020F008008DF80200217C11B140F036
:107B4000100001E020F010008DF80200217B11B13F
:107B500040F0010001E020F001008DF80200217DDD
:107B600009B1022100E0012161F342008DF8020019
:107B70001C2102A8FEF7EFFB607BC10601D4800642
:107B800017D50E950EAFE07C791C02F0FBFB9DF83B
:107B90003800079720F00F00401C20F0F000103054
:107BA0008DF838009DF83A0020F00600801C8DF812
:107BB0003A00607B8DF80800A07B8DF80900142145
:107BC00009A8FEF7C8FB0FA8CDE90906A088ADF803
:107BD0003000A06820B1E088ADF82C00A0680D90BE
:107BE000A06998B301950088ADF81000A06901ADB7
:107BF00001A94088ADF81200A0694068069503907D
:107C0000A069007B02F0BEFBA069691C407B02F00A
:107C1000B9FBA069807A00289DF8060002D040F0E8
:107C2000080001E020F008008DF80600A169C97A7B
:107C300011B140F0100001E020F010008DF80600B6
:107C4000A169097A19B140F0010002E00DE020F0CD
:107C500001008DF80600A169897B09B1022100E0CD
:107C6000012161F342008DF80600E06900B1059042
:107C7000434609AA02A94846AADF11B0BDE8F0832D
:107C800070B5084C050009D010342168002907D0D0
:107C900008682060496828468847F6E70834F4E712
:107CA00070BD0000002F0020054A012120B10128ED
:107CB00005D19170FFF7E4BF51700020FAE77047DB
:107CC000002F00202DE9F05F26484168F1B3DFF86E
:107CD00098B00E688146DBF8004087688078E11B29
:107CE00021F07F45ED1CB0B9DFF880804FF4803083
:107CF000C8F84403C8F804031120FEF715FC11204E
:107D0000FEF71DFC4FF0010AC8F800A02F2001F07B
:107D100085FE89F802A0B54200D23546124BE8191B
:107D20003C3320F07F401860DBF800105A46091BF6
:107D300021F07F41001B20F07F40C91C81420FD9F8
:107D4000106818602F2001F069FE00E004E0BDE833
:107D5000F05F1120FEF7FEBBBDE8F05F02F0FAB95C
:107D6000BDE8F09F482B00200415014000100140A1
:107D700073B58CB00646002000900D9880B10024A9
:107D80006D4621460DA800F0C9FC30B1009805EB06
:107D9000400084800098401C0090641C142CF0D398
:107DA0002C2269463046FEF7BDFA0EB070BD2DE9B3
:107DB000F04117880646B81D14460D46984202D970
:107DC0000C20BDE8F0813188072206290AD34FF440
:107DD000486C4FF6FF73614501D9994202D1708812
:107DE000062801D21046ECE7604501D99842F9D146
:107DF000994203D0984201D08142F3D80520E8553A
:107E000020881221401C80B2208029542088401CE8
:107E100080B220804119308802F0B3FD21880844E7
:107E200080B220804119708802F0ABFD218808449F
:107E300020800020C5E7FEF79FBE000038B54A7AD3
:107E40000F4B62B100220A725969002906D0012243
:107E50008DF80020ADF802006846884738BD0A7AE0
:107E600062B19B684C68024619462046FEF7E6FE62
:107E70000028F3D0BDE8384002F010BA5B68F1E7A3
:107E80006C2E002070B588B0064600200590069044
:107E9000ADF81410ADF816100190029001AA05A9D2
:107EA000304690DF050021D001F05EFD0346114809
:107EB00011493246401AC108012000EB0140044636
:107EC0000E4901F0C6F9BDF8042012B9BDF806004C
:107ED00028B1BDF80630204609A101F0BAF9BDF875
:107EE00008201AB12046164901F0ACF908B028461E
:107EF00070BD000060B6020060B60200E4AE020091
:107F00005468652072657175657374656420545892
:107F10002F5258207061636B6574206C656E6774B6
:107F20006820697320746F6F206C6F6E67206279B0
:107F30002025752F2575206F63746574732E0000DE
:107F400030AF020010B50021024800F013FC80F3AE
:107F5000100010BDE03500200E4910B50A784C78AD
:107F60000023A24212D0521CD2B20A70022A00D1BF
:107F70000B70084A0B780C3252F823200260886894
:107F8000104420F07F408860012010BD0360002075
:107F900010BD0000482B0020826883881A400368C7
:107FA0009A5C0A708168491C81607047C268838846
:107FB0001A4003689954C168491CC160704770B584
:107FC0000D460446B0F83812D0F834020122FFF70B
:107FD0005EF800B1057004F13C0204F50D7104F186
:107FE000540072DF70BD10B50446C0B2FEF77AFED1
:107FF000204610BD06484A8803889A4207D10A885D
:10800000A2F52063773B02D18988C91E4180704761
:10801000A02A002010B50949094800F014FC08B155
:10802000FEF7AAFDF721064800F001FC002803D066
:10803000BDE81040FEF7A0BD10BD0000F57F0200B6
:10804000C02B00200146034802888A4200D000204D
:1080500070470000582E00202DE9FC5F0E0083467B
:10806000DDE90C47C6F1000098469246814600D4EF
:108070000846012503E000BF90FBFAF06D1C504557
:10808000FADAA84500D9454624B1002E01DB78076D
:1080900000D5641EB80702D5B8F1000F0AD0F80762
:1080A00008D13CB1A54205D220215846641EFFF7F5
:1080B000F5FCF6E7002E02DA4E462D2102E07807A5
:1080C00003D52B215846FFF7E9FC07F003000228EF
:1080D0000BD1B8F1000F08D13CB1A54205D2302137
:1080E0005846641EFFF7DAFCF6E7CDE90047434641
:1080F00052463146584602F049FCBDE8FC9F00005C
:1081000070B50D46044600684FF4887101F04CFCD0
:108110004FF49071206801F047FC4FF49271206891
:1081200001F042FC4FF4A271206801F03DFC206890
:108130001149C0F804132068690740F30730090E9D
:10814000002806DA00F00F0000F1E02080F8141D8E
:1081500003E000F1E02080F800142068012140F3E2
:10816000073000F01F0291404009800000F1E0203C
:10817000C0F8001170BD000010030200024600208C
:108180001268530713D502F00300012802D0022819
:108190000CD105E0C2F383100B68801C184404E086
:1081A0000223086803EB92521044086001207047D4
:1081B000F0B58488A518944200D82246A41AC28833
:1081C000D6189A4200D81346D21A4B880788BB4269
:1081D0000CD34088834209D88888A04206D3A8429D
:1081E00004D8C888904201D3B04201D90020F0BD24
:1081F0000120F0BDF721018017214180002101718C
:108200004171FB2181711B21C17170472DE9F0473C
:10821000394E002780463D46DFF8E090D6F804A0AE
:1082200057E003D00446D0F81C8035E099F80020D0
:1082300002EB4201521CD2B289F8002009EBC101C5
:1082400099F80230091D9A4201D189F80050486816
:108250000A780446012A12D0022A02D0032A3BD10E
:1082600008E002F083F900B10127257434E00574B9
:10827000C06900E070680028F9D170602CE0207CB3
:1082800050BB88686060C868A0600869E0604869A1
:10829000A061F07800B165606268B168184B501A4F
:1082A00020F07F40984202D2A168084406E0881A74
:1082B000A16820F07F40814202D9081A206000E0C6
:1082C000256065600120A56020742046E56102F00C
:1082D0002FF9B8F10000A4D199F8001099F8010025
:1082E0008142A3D117B97168514502D00120BDE880
:1082F000F0870020FBE70000482B0020F82F00202B
:10830000FFFF7F002DE9FF410026234800F01EFA01
:108310002148001F074600F019FA204C60680090C1
:10832000A56800E000986946284004EB80000C3006
:10833000FFF724FF0028F5D101AA009901EA0503FF
:1083400004EB8303491CDB6842F82030401C009199
:108350000228F2D3019800F0030001280BD0022874
:1083600010D10198032101EB90500099BDF80A60EB
:1083700001EB900005E00198BDF80A60C0F383109E
:1083800008440090384600F0DEF908B100986060BB
:1083900004B03046BDE8F081DC350020C431002057
:1083A000ACB002F08FF9FEF71FFC08B1FEF7E4FB5A
:1083B00001F0A6F808B1FEF7DFFB01F021FA08B1E1
:1083C000FEF7DAFB002469460120009401F0B8F8BA
:1083D00008B1FEF7D1FB684601F04AF908B1FEF793
:1083E000CBFB9DF808004AA120F00F00401C20F0B4
:1083F000F00010308DF808000B2202A87CDF08B1D5
:10840000FEF7BAFB00941020ADF800003C20019468
:10841000ADF80200ADF804404FF4C870ADF80600A6
:1084200068467ADF08B1FEF7A7FBFFF7F3FD3B488C
:10843000019001A93A4800F0CAFA08B1FEF79CFB86
:108440003848009069463848FFF718FA08B1FEF737
:1084500093FBAC216846FDF77EFF02208DF80000FB
:108460008DF8024005208DF803000120ADF84C0086
:108470002D498DF87C004020091F2290149144F270
:108480005060239029482990254869460C30FEF712
:108490002DFE08B1FEF770FB214801210C30FEF7DC
:1084A00022FE1C216846FDF756FF4FF42030CDE92F
:1084B00000404FF47020029003208DF80C001C48FF
:1084C00005901C480690ADF80E408DF810406846A7
:1084D000FEF7E0FF08B1FEF74FFB112000F0A8FC0B
:1084E000122000F0A5FC4FF0A0404FF40031C0F87E
:1084F00008154900C0F808150FA0FEF7A5FA0848AE
:1085000003210C30FEF7AFFE08B1FEF735FBFEE7A6
:108510004E6F726469635F554152540029950200A1
:10852000D42B0020459D0200A82A0020F19D0200C6
:10853000F59D0200377E02000D0A5541525420730A
:108540007461727465642E0D0A00000070B51446E3
:1085500082880E4605462088111D0144921C9942CE
:1085600001D8FE2A01D90C2070BD521C325420883B
:10857000FF21401C80B2208031542088401C80B2F2
:1085800020808119288802F0FCF92188084480B2F3
:108590002080AA8842B1A96841B13044FDF7C2FEEB
:1085A0002088A98808442080002070BD072070BD65
:1085B0002DE9F047C5881E1DB6FBF5F78946B6FBC9
:1085C000F5F1044605FB176C407916686843DDF841
:1085D00020A0F718001F874200D9C61A166001E0D4
:1085E0002468491E0029FBD1A5EB0C078846B74239
:1085F00016D818E004EB0C00001D09EB0803BAF1D3
:10860000000F3A4602D00146184600E01946FDF731
:1086100089FE2468F61B4FF0000CB844B54201D91E
:10862000374600E02F46002EE4D1BDE8F087000079
:1086300030B5024651B100F06DFE0021074C08E054
:1086400034F821301568AB4202D11160002030BDF2
:10865000491C8142F4D3052030BD00000000000019
:10866000F8B50F46017814460546012901D168780E
:1086700030B12088821C9A4232D8012902D006E00B
:108680000720F8BD69780144891C994228D8181A36
:10869000801E86B2ADF800602188B81C0844694687
:1086A0007DDF0028EDD12978022904D06878BDF853
:1086B0000020904205D3BDF80000B04201D8092047
:1086C0000AE00820012905D16978B14202D8ADF845
:1086D000001001E0ADF80060BDF80010FE2901D9DE
:1086E0000C20F8BD2288491CB9542188491C89B244
:1086F000218078542088401C2080BDF80010084458
:1087000020800020F8BD01F01F0301229A40D243CF
:10871000490900EB8100114600F021B84A0950F8E0
:10872000220001F01F0201219140084000D00120E9
:10873000704701F01F0301229A40490900EB8100B4
:10874000114600F01CB8002100F00FB8012100F024
:1087500016B808B56A46FDF790FD009808BD08B543
:108760006A46FDF770FD009808BD08B56A46FDF73A
:108770006AFD08BD08B56A46FDF74CFD08BD08B5A1
:108780006A46FDF753FD009808BD08B56A46FDF737
:1087900081FD009808BD38B5044600258DF80050CD
:1087A0006846FEF7C9FA21686268086890420ED9E7
:1087B000401E08600178238AE26801FB0325227AC3
:1087C0002168101AC0B20A79824200D208719DF85D
:1087D0000000FEF7D5FA284638BD38B5054600201A
:1087E0008DF800000C466846FEF7A6FAE868298A6C
:1087F000201AB0FBF1F12A681068431C1360017065
:108800009DF80000FEF7BCFA38BDC20800F007036F
:108810000120895C98400840704710B5C20800F0FC
:108820000703885C01249C402043885410BD28B174
:10883000A1F11702E12A03D3072070470E207047E9
:1088400001800020704710B560B10161F72120F868
:10885000021B20F8021BFB2100F8021BFFF7CAFCD9
:10886000002010BD0E2010BDF0B5858893B00C46D9
:10887000002D39D1018800263F4F24293BD006DC4A
:10888000102909D011290CD0232958D14FE03A29B9
:108890000BD0552953D129E00146204601F0EEFACC
:1088A0004DE0A01DFFF7A6FC49E02246408934F8C0
:1088B000061F814200D808466080172800D2172082
:1088C0006080106970B1607960B1D7E90001CDE9CD
:1088D0000301ADF80E506088ADF81000136903A9CC
:1088E000104698476671267113B0F0BD01462046C8
:1088F00001F018FB23E0011D2C2206A8FDF712FD54
:10890000BDF81800BDF81C2004EBC0014A732269B1
:10891000AAB1D7E90423CDE90423ADF81200487BBE
:108920008DF814002269204604A9904707E0017AD7
:10893000207B884200D201462846FFF7A3FAA07A9E
:108940000028D1D0E1882846A5DF012580B1112873
:10895000CAD001F009F802460848094913B0401A84
:10896000C00805EB0040BDE8F04006A100F06ABC7D
:10897000A672E572B8E70000E4AB020060B6020040
:1089800060B6020073645F626C655F6761747463F4
:108990005F65786368616E67655F6D74755F72654A
:1089A000717565737428292072657475726E6564BB
:1089B0002025732E0000000020B10278DE2A03D0AB
:1089C000082070470E20704741800020704760B13A
:1089D00059B10278DE2A0AD009684160DE210170AF
:1089E0004FF6FF714180002070470E20704708202D
:1089F00070477FB5054600294DD0002D4BD0087833
:108A00000C46DE2847D1A8886188884202D12046DA
:108A100002F056F82888012825D002283BD01128DA
:108A20003AD0512837D135F8040F6188884232D1C5
:108A3000A978A81C02292ED1017A042903D006297D
:108A400001D0052927D10021009102228DF80020B4
:108A500001914FF4C07202910391ADF80420007AA5
:108A600005280FD010E0297A2046012913D1A988C2
:108A7000428891420FD10121017204B0BDE87040DB
:108A800002F01EB8ADF8041028886946B0DF00284F
:108A900001D0616888477FBDA88861888842FAD183
:108AA0004FF6FF7060807FBD00F1804000680028B5
:108AB00000D00120704708B500F18040002101601E
:108AC0000068009008BD000070B50B4C207808B11C
:108AD00085250FE00020A06060602061E06007480D
:108AE00000F07EFF054600F0D7FE08B900F062FFF7
:108AF00001202070284670BD002F0020A97C0200B4
:108B000038B500258DF800506846FEF715F9074C7A
:108B1000E068401EE060E06810B900F071FFA570E9
:108B20009DF80000FEF72CF938BD0000002F002052
:108B3000F0B505460478154889B0164640F824205B
:108B4000124A0869121DA2F1080742F82400487F62
:108B5000385520226846FDF7E5FB04942878385CF8
:108B600048B10EB10A4A00E000226946281D01F012
:108B70005DF809B0F0BD0EB1064A00E0002269467A
:108B800005F10C0000F080FFF3E70000082B002047
:108B900061A8020009A7020030B40378054CE35C29
:108BA0001BB130BC001D01F077B830BC0C3000F0B8
:108BB000D3BF0000042B00200FB408B5039900298F
:108BC00004D004AA00926A4600F00FF801B05DF8E4
:108BD00014FB10B582680446002A05D0D4E90403CA
:108BE000216898470020A06010BD2DE9FC47914600
:108BF0000C00804676D014F8011B39B125290ED01F
:108C00004046FEF74BFF20780028F4D198F80C007E
:108C1000002867D04046BDE8FC47FFF7DABF0020D8
:108C2000012221782B291BD02D2902D0302908D1EF
:108C300002E040F0010001E040F00200641C002A64
:108C4000EFD100252A290ED02178A1F130020A2A7D
:108C500011D205EB850201EB4205641C303DF1E7C2
:108C600040F00400EAE7D9F800100B1DC9F8003005
:108C70000968641C0D44217800232E290BD114F8B7
:108C8000011FA1F130020A2A05D203EB830201EB96
:108C90004203303BF3E76C290DD068290BD06929DA
:108CA00021D00BDC252918D0582931D063290ED0CA
:108CB000642915D117E014F8011FECE7702969D079
:108CC000732932D075291BD0782909D120E0D9F831
:108CD0000000011DC9F8001001784046FEF7DEFED5
:108CE000641C90E76CE0D9F800100A1DC9F8002058
:108CF0000968CDE900500A224046FFF7ADF9EFE7D9
:108D0000D9F800100A1DC9F8002009680A2206E0F7
:108D1000D9F800100A1DC9F8002009681022CDE911
:108D20000050404601F032FEDAE7D9F80010002783
:108D30000A1DC9F800200E68C00705D112E04046A0
:108D4000761C7F1CFEF7AAFE31780029F7D104E0DB
:108D5000202140466D1EFEF7A1FEBD42C0D9002D68
:108D6000F6D1BDE74EB13046FDF712FB074604E0F1
:108D7000202140466D1EFEF791FEBD4206D9002D12
:108D8000F6D103E04046761CFEF788FE31780029D4
:108D9000F8D1A5E7D9F80000011DC9F80010056851
:108DA00030214046FEF77AFE78214046FEF776FEF7
:108DB00008200021CDE90001034610222946B0E732
:108DC000BDE8FC8770B541EA4201DDE904564FF089
:108DD000A04441EA830141EA052104EB800041EA15
:108DE0000641C0F8001770BD70B541EA4201DDE9E7
:108DF00004564FF0A04441EA830141EA052104EB07
:108E0000800041EA0641C0F8001770BD1CB5002281
:108E10000B46009211460192FFF7D4FF1CBD1CB512
:108E200000220B46009211460192FFF7DDFF1CBDA8
:108E30004FF0A04202EB80000321C0F800177047FA
:108E40001CB5002100910B46012201911146FFF74C
:108E5000B9FF1CBD1CB5002100910B4601220191F8
:108E60001146FFF7C1FF1CBD4FF0A04202EB80008E
:108E7000D0F8002722F44032C0F80027D0F80027AD
:108E800042EA0141C0F8001770474FF0A042D2F803
:108E900004350121814021EA0300C2F80805194088
:108EA000C2F80C157047000018B5084B6C46014419
:108EB0001B68009306E000BF54F82030D3F810354B
:108EC000401C08C28142F7D818BD000014AC020053
:108ED000034908B50844002101600068009008BDFE
:108EE0000060004002494058012800D0002070472F
:108EF000006000407047704708B5034A0092402365
:108F0000024A00F005F808BDADA20200E8350020D5
:108F1000F0B595B01C4615460F4608461A9E00F05F
:108F2000CBFA182109A8FDF716FA0E96CDE90954D7
:108F30000023082203A9384600F0D1FA05980690CC
:108F4000BDF81000ADF81C00BDF81200ADF81E0011
:108F500000208DF821000398082600F00300012866
:108F600002D0022818D032E003983346850AC0F3B5
:108F7000C2008DF8200003980FA9C0F38314A2004B
:108F8000384600F0ACFA09A8009006AB22460FA9BB
:108F9000284600F0EDF91AE00398840DC0F3C200F2
:108FA0008DF82000082C01D2254600E00825334624
:108FB0002A460FA9384600F092FA2E44641B09ABEA
:108FC00006AA29460FA800F04DF9002CEAD1384630
:108FD00000F076FA15B0F0BD0A4A012902EBC00094
:108FE00007D0022907D0032907D0042907D0002081
:108FF000704702207047042070470079704740791D
:109000007047000060B602002DE9F04F8DB0FEF70A
:109010005DFD18B100200DB0BDE8F08F7E4C4FF023
:10902000000BC4F818B4BFF34F8F60680290A568B6
:10903000D846284004EB80000CE000BFD4F81804A8
:1090400070B921680298814201D86160E2E7284046
:1090500004EB80000C3002A9FFF790F80028EDD156
:10906000002005AA029901EA050304EB8303491CC9
:10907000DB6842F82030401C02910228F2D30598A8
:1090800000F00300022802D001284DD0AAE0059884
:109090005022810D8946B2EB905F00D850210E46D8
:1090A00066F39F50059008315C4800F0BCF907005A
:1090B00078D000F001FA4346082205A9384600F0AE
:1090C00016FA029908F1080A2940681A8000001D62
:1090D000864222D9504D0C3530B1C2B204EB810129
:1090E000301A90460C3104E02946F2B20025904631
:1090F0002846C6B25346384600F0F9F90AEB080391
:1091000025B132462946384600F0F1F9029909F1B5
:10911000030001EB900002903BE004EB8101534619
:10912000324638460C31EFE70598C0F38310062825
:1091300000D30620059960F38911C1F38310801CC8
:1091400005918100354800F06EF907004AD000F023
:10915000B3F94346082205A9384600F0C8F908F1DA
:10916000080800260FE00298434600EA0501401C6B
:1091700004EB81010290042238460C3100F0B7F96B
:1091800008F10408761C0598C0F38310B042EAD8B1
:1091900047B1D4F81054D4F8180478B1384600F028
:1091A0008FF934E01EE0E8684079012804D12A688C
:1091B0002846394612689047E8680568002DF2D1C4
:1091C000384600F07DF98DF800B06846FDF7B4FD33
:1091D000D4F8180408B9029860609DF80000FDF703
:1091E000CFFD14E0D4F8104405E0216820468968DA
:1091F0008847E0680468002CF7D109480949401AFB
:10920000C008022101EB004007A100F017F8FEF7AB
:109210005DFC80F00100FEE6C4310020C8B602000B
:10922000A8B6020060B602004261636B656E6473AB
:1092300020666C75736865640000000000231A46A0
:1092400001F0F0B808B5012300926A4601F0EAF88F
:1092500008BD1CB5CDE9002302236A4601F0E2F8FF
:109260001CBD00002DE9F0470E4680461C46924684
:10927000082940D894F80C90002020731946104615
:1092800000F010FF0025B54206D218F805201BA1FA
:109290002046FFF791FC03E01AA12046FFF78CFC63
:1092A0006D1C082DEFD318A12046FFF785FC002583
:1092B000B54212D218F805707E2F08D8FDF72EF8A7
:1092C0000068C05D10F03E0F01D03A4600E02E224B
:1092D0000EA12046FFF770FC03E00DA12046FFF72A
:1092E0006BFC6D1C082DE3D301222146504600F093
:1092F000BBFE84F80C90BDE8F087000020253032DA
:1093000078000000202020007C0000002563000081
:109310002000000002480349401AC00870470000BE
:10932000C8B6020060B6020013B56846FFF780F9C0
:1093300008B100201CBD0248009950F831001CBD46
:1093400060B6020070B509480125D0F8104480F8D5
:10935000205407E0E0684571216820464968884745
:10936000E0680468002CF5D170BD0000C431002015
:109370002DE9FF4781460C9D00200C462F7B28736A
:10938000984616462946184600F08CFE072E42D213
:10939000DFE806F004090F161F2A36004946284662
:1093A000FFF70AFC37E0494628462268FFF704FC2D
:1093B00031E0D4E9002349462846FFF7FDFB2AE0C7
:1093C000A0680090D4E9002349462846FFF7F4FB43
:1093D00021E0D4E90201CDE90001D4E900234946A6
:1093E0002846FFF7E9FB16E004F1080007C88DE8FE
:1093F0000700D4E9002349462846FFF7DDFB0AE0D1
:1094000004F108000FC88DE80F00D4E90023494695
:109410002846FFF7D1FB00222946404600F024FEF3
:109420002F73BDE8FF872DE9F041058A80462D1F87
:109430004819C01CB0FBF5F0C6B24046FFF7ABF9C7
:10944000041E19D00020207101206071E5800027E2
:109450002546761EC4F800800BE04046FFF79BF9D6
:1094600060B16179491C6171286005467F1CC0F8B4
:109470000080B742F1D32046BDE8F081204600F0DD
:1094800002F80020F8E72DE9F041457901466B1E0E
:10949000002201E00968521C9A42FBD30F68014682
:1094A000002605E038460C68FFF797F92146761C40
:1094B000AE42F7D3BDE8F0810121001DFFF749B9A5
:1094C00010B504460121001DFFF75FF910F0FF0FF2
:1094D00004D12046BDE81040FFF7D5BF10BD1CB534
:1094E00001920122009201AAFFF762F81CBD1CB58F
:1094F00001920022009201AAFFF75AF81CBD000059
:10950000064910B500204870091D0860BFF35F8F41
:109510000349044800F0E4F9002010BD202B00208E
:1095200030AC0200C02F0020FDF726BB20B103495C
:1095300009680160002070470E20704730AE0200BD
:109540002DE9FE4307460E460846FFF7EFFF0028C9
:109550007CD100240094019406208DF800704FF017
:109560000108ADF8040002948DF8028069462020BD
:10957000326869DF3649374A891AC908012202EB85
:10958000014530B100F0F0F9024628463249FFF7B4
:1095900059FE00948DF801808DF8024001940294E8
:1095A0008DF8034069464020326869DF30B100F031
:1095B000DBF9024628462949FFF744FE00948DF85E
:1095C0000070F720ADF80200019402946946232050
:1095D000326869DF30B100F0C7F9024628462049F9
:1095E000FFF730FE0094019402948DF800806946E4
:1095F0000120326869DF30B100F0B6F90246284632
:109600001849FFF71FFE4FF4B060009001940294D8
:109610006946A120326869DF30B100F0A5F9024641
:1096200028461149FFF70EFE0094019402948DF82C
:1096300000406946A020326869DF30B100F094F93B
:10964000024628460949FFF7FDFD0020BDE8FE83DC
:10965000B8B6020060B60200D0B4020018B502002D
:1096600064B5020030B402007CB40200DCB3020036
:109670002DE9F0410546076860DF804619491A4820
:109680002A68081AC608BA4219D9022000EB064413
:1096900016A12046FFF7D2FD20463A461FA12B68AF
:1096A000FFF7D7FD4FF08050D0F80C0129688002F9
:1096B00000F10050421A204625A1FFF7C3FDB8F182
:1096C00000004FF001040AD000F04EF9024604EB0E
:1096D00006402AA1FFF7B6FD4046BDE8F0812F48BD
:1096E0000470F9E7B8B6020060B60200496E7375FF
:1096F0006666696369656E742052414D20616C6CC9
:109700006F636174656420666F72207468652053AE
:109710006F66744465766963652E00004368616E08
:109720006765207468652052414D207374617274BE
:10973000206C6F636174696F6E2066726F6D20308C
:1097400078257820746F20307825782E000000006E
:109750004D6178696D756D2052414D2073697A6550
:1097600020666F72206170706C69636174696F6EDE
:1097700020697320307825782E00000073645F62C2
:109780006C655F656E61626C652829207265747511
:10979000726E65642025732E00000000BB2B002034
:1097A00030B51548ADF5017D0078002821D04FF483
:1097B000FA7500BFADF8005280A9684661DF38B184
:1097C000052816D00DF5017DBDE83040FDF7D4B970
:1097D0006C460A497DA800F083F806E0D0E9002134
:1097E000204690477DA800F092F87F980028E1D0AD
:1097F000F4E70DF5017D30BDBB2B002034AE020037
:109800007CB5194C207808B108207CBD0120A070DF
:10981000002000F015FD112819D0002000F028FDCF
:1098200012480026006801908DF800606846FDF738
:1098300083FA0F4901A810DF05000AD0002020702C
:109840009DF80000FDF79CFA2DB128467CBD002054
:109850007CBD0120F3E7A670667000F0B7FD012023
:1098600000F006FDF3E70000B82B0020C8AD0200B1
:10987000F56A02000EB50749684600F031F805E0C8
:10988000D0E900108847684600F041F802980028A7
:10989000F6D10EBDE4AD020001480078704700002B
:1098A000B82B00201FB568464BDF30B1052814D017
:1098B00004B0BDE81040FDF75FB9084901A800F009
:1098C0000FF806E0D0E900210098904701A800F0C9
:1098D0001EF803980028E6D0F4E71FBD50AE020042
:1098E000016009684160AFF3008010B5D0E9002144
:1098F0005368994201D1002104E0D1E90034A34228
:1099000002D01946816010BD08314160F0E78168DE
:1099100000290BD0026892680A44826041684B6853
:109920009A4203D108314160FFF7DFBF7047000062
:109930000C4A10B502F594730EE0991AC91001EBA8
:10994000D171491002EBC1010C68844201D90B4668
:1099500002E005D201F108029A42EED3002010BDC8
:10996000486810BD60AC020000B5FFF7E1FF0028B9
:1099700000D1014800BD00004CAC02004058002856
:1099800000D00120704708B5002242504058009096
:1099900008BDD0F80403084000D0012070474058AB
:1099A000002800D00120704708B5002242504058DE
:1099B000009008BD08480068012110F0010F06D191
:1099C0004FF0E020C02280F80024C0F800110349C5
:1099D000012008607047000000E100E01805004029
:1099E0000649024600200B790BB1852070470A60BA
:1099F00001220A7100224A7170470000102B0020DA
:109A000004490120086004480168C1F300410029AD
:109A1000FAD170470C00004018040040002802D022
:109A2000014980010847704791AD02000121B1EB67
:109A3000507F01D1012070470020704738B50D4696
:109A400000F07CFB040014D000208DF80000684674
:109A5000FDF772F9207928B19DF80000FDF790F923
:109A6000112038BD0120256020719DF80000FDF710
:109A700087F9002038BD00000149024800F05CBEB3
:109A8000382F0020002000402DE9F04105460079E4
:109A900016460F4600EB40012C4A01EBC00102EBD9
:109AA000810494F82A1011B10820BDE8F0812849FA
:109AB00051F820102868FFF7C1FF08B11120F4E722
:109AC00039462846FDF7BAF96660386920603000EB
:109AD0004FF001062DD03F7F4FF48E712868FFF7BD
:109AE00052FF4FF4A2712868FFF74DFF286819490B
:109AF000C0F8041328684FEA471140F307300028E4
:109B000006DA00F00F0000F1E02080F8141D03E0F9
:109B100000F1E02080F80014286840F3073000F0DE
:109B20001F0106FA01F14009800000F1E020C0F8B1
:109B3000001128680421C0F800150020A061E06130
:109B400084F8290044F8140FA675AEE7382F0020DA
:109B500010AC0200800002002DE9F04705460079B4
:109B60000B4600EB400101EBC000234901EB8004F0
:109B7000284600F043F810B11120BDE8F0874FF0FF
:109B80000008C4F82080A360626184F828804FF444
:109B90008E76474631462868FFF7F5FE28684FF075
:109BA0000109C0F808902146286800F06DFD606842
:109BB00000BBD5F800A00EE094F8280008B10F27EC
:109BC00016E031465046FFF7D9FE0028F4D0214672
:109BD000504600F059FD216A60698142F1D3314657
:109BE0002868FFF7CBFE0028F9D02868C0F80C9051
:109BF000C4F814803846C0E7382F0020007900EB05
:109C0000400101EBC000044901EB800040690028DD
:109C100000D0012070470000382F00200149024881
:109C200000F036BE142F0020002000402DE9F04146
:109C30000546164600790F46154A00EBC00102EBB7
:109C4000810494F8201011B10820BDE8F081114979
:109C500051F820102868FFF7F1FE08B11120F4E751
:109C600039462846FDF7A6F86660386920601EB1BF
:109C7000397F2846FEF744FA28680821C0F8001505
:109C80000020A061E0616061012184F82010DCE720
:109C9000142F00200CAC02002DE9F04704460E46BC
:109CA0000079204900EBC00001EB800517463046E3
:109CB000FFF7BCFE30B1204600F036F820B111208D
:109CC000BDE8F0871020FBE76F61AE604FF490763F
:109CD000002731462068FFF767FE4FF4AC78414615
:109CE0002068FFF761FE2068AA686969C0F844250A
:109CF000C0F84815206801218160686878B9B146CC
:109D000049462068FFF74BFE064641462068FFF7AC
:109D100046FE0643F4D000B10F27002068613846A4
:109D2000CEE70000142F00200079054900EBC000A9
:109D300001EB80004069002800D00120704700003E
:109D4000142F00202DE9F0420446007800283CD171
:109D500000261F4D18E01F4F05F10C091C481EA1DD
:109D600004220378FB5C1BB1001DFFF795FF02E0A6
:109D70004846FFF7F1FE2169E868895DC0F81C15C7
:109D8000B8F1110FEAD0761CA08AB042E3D8A18ABC
:109D90002069084410F8010C0D2803D1E8680A2155
:109DA000C0F81C150EA12069FCF7E0FA10B11120D3
:109DB000FFF76BF80CA12069FCF7D8FA002804D053
:109DC000BDE8F0421220FFF760B8BDE8F082000065
:109DD000C42A0020042B0020494E0D0A0000000078
:109DE0004C454431000000004C4544320000000066
:109DF000704700000078002807D104483B21008804
:109E000076DF002801D0FCF7B7BE7047A02A0020FB
:109E1000F0B58BB0002601960D460446898840694E
:109E200001AAFDF74FF80AA8CDE908600227ADF8AE
:109E30002070ADF82260218AA88808AAADDF00282A
:109E400019D1A069002816D00998FDF7B9FD00289E
:109E500011D0019E0EB101203070182102A8FCF72C
:109E60007AFA8DF808700394A888ADF8100005966A
:109E7000A16902A888470BB0F0BD000070B58D88BD
:109E8000027900EBC5042273C97BA41D012902D00D
:109E9000022904D101E0008800E040882080218868
:109EA0006088814211D92846A5DF0126B0B111286A
:109EB00016D0FFF759FD02460B480C49401AC0085E
:109EC00006EB00400AA1FFF7BDF9A179E0798142D4
:109ED00008D92846BDE87040FDF7D4BF6671F4E7A5
:109EE0002671F2E770BD000060B6020060B60200A5
:109EF00073645F626C655F67617474635F657863E8
:109F000068616E67655F6D74755F726571756573A5
:109F10007428292072657475726E65642025732E0D
:109F2000000000007CB506468D88C88806EBC50495
:109F3000A41D172800D217202188814200D8084686
:109F400060800020207121882846B5DF60B1FFF7CE
:109F50000BFD02460F481049401AC008012101EBD1
:109F600000400EA1FFF76EF96079002810D130692A
:109F700000280DD01549D1E90201CDE90001ADF865
:109F800002506088ADF80400326969463046904757
:109F90007CBD000060B6020060B6020073645F62C0
:109FA0006C655F67617474735F65786368616E6721
:109FB000655F6D74755F7265706C792829207265B4
:109FC0007475726E65642025732E0000E4AB020088
:109FD000F0B587B00C4605468E1D8988406906AAF3
:109FE000FCF770FF18216846FCF7B5F90195A088C9
:109FF000069AADF80800039231882B89002704F1F6
:10A000001200994202D17389022B0DD0AA89914284
:10A010001ED1A96900291BD08DF8007004907089A9
:10A02000ADF81400A96911E0002A11D0FDF7C8FCB1
:10A0300020B1069901200870022002E006980770FE
:10A0400003208DF80000A969002901D068468847DF
:10A0500007B0F0BD0068012803D0022801D000201D
:10A06000704701207047000010B50C46017A0529A1
:10A0700008D0407A38B1084808A102682046FEF7A7
:10A080009BFD00E01AB106A12046FEF795FD204693
:10A09000BDE81040FEF79DBD782B00202573000021
:10A0A0000D0A000038B5C3880D46044633B114A02C
:10A0B000009015A216A12846FEF77EFD217A0529FB
:10A0C0001CD0607A48B1A088FEF786FF164951F887
:10A0D000202016A12846FEF76FFDA0880021FFF77B
:10A0E00023F903461049207A143951F8202001B091
:10A0F0002846BDE830400EA1FEF75EBD38BD000029
:10A100001B5B306D000000001B5B313B33316D0089
:10A1100025734C6F67732064726F707065642028BC
:10A1200025642925730D0A00782B00202573000073
:10A130003C25733E2025733A2000000003498842E5
:10A1400001D1034870470020704700000020004004
:10A15000182B002070B5012670044FF0E021002577
:10A16000C1F88001084C4010C4F84803C4F8080343
:10A1700066602F20FFF752FCA660044C2F20A560DC
:10A18000FFF74CFCA57070BD00100140482B00206B
:10A1900070B5054688690C4600284FF4847128463E
:10A1A0000AD0FFF7F0FBD5F81805626AE168885419
:10A1B000606A401C606270BDFFF7E5FBD5F81805CA
:10A1C00070BD1FB501238DF80030CDE90121D0E924
:10A1D0000012684690471FBD1FB501238DF800305F
:10A1E000CDE90121D0E90012684690471FBD00006B
:10A1F00038B50021012548B101280CD0032809D128
:10A20000FFF7D8FBBDE83840FEF77ABC4FF0E020FE
:10A21000C0F8805138BD8DF800106846FCF78CFD01
:10A22000064C207808B9FEF74FFCE068401CE0605F
:10A23000A5709DF80000FCF7A3FD38BD002F00209D
:10A240003EB5044609496846FFF74AFB08E000BFEF
:10A25000D0E900212046904730B16846FFF757FB10
:10A2600002980028F4D13EBD11203EBDCCAD0200C5
:10A270003EB5044608496846FFF732FB07E000BFD9
:10A28000D0E90021204690476846FFF740FB02983E
:10A290000028F5D13EBD0000D8AD02000249896911
:10A2A000002900D0084770476C2E00202DE9F041AE
:10A2B0001400884618D000250E4F032608EB050130
:10A2C00022460020FCF7A0F90544241A40B938784A
:10A2D000002809D008494FF47A408847761E05D0F7
:10A2E00001203870002CE9D1BDE8F08100203870E1
:10A2F000FAE70000AC2B0020B1AD02002DE9F041DF
:10A300000746806A14468846C8B3002531E000BF7E
:10A31000B96A05EB450001EB8006B088801CFE2879
:10A3200002D90C20BDE8F0812288401C08F8020008
:10A3300020881622401C80B2208008F80020208847
:10A34000401C80B2208000EB0801308800F019FB2F
:10A350002188084480B22080B28842B1B16871B1CE
:10A360004044FBF7DFFF2088B188084420806D1C43
:10A37000EDB297F82C00A842CAD80020D2E7FFE738
:10A380000720CFE70A78062822F0FF020A7010D2D1
:10A39000DFE800F0030507090B0D002008E011209D
:10A3A00006E0212004E0312002E0122000E022201B
:10A3B00008707047002805D103490120487000202B
:10A3C000FDF75EBC70470000002F002010B516207E
:10A3D000FCF752FBA0B1114890F80004400908288E
:10A3E00011D20121814011F0EC0F0CD00C48826891
:10A3F0004FF480016AB1016841F48001016010BD31
:10A4000042F2010001E042F20200BDE81040FCF718
:10A41000B3BB4FF0E020C0F8001110BD16E000E023
:10A42000CC2F00202DE9F84F204D92468946064654
:10A430009846012269461846AF68FDF7E7FA58B317
:10A44000009800210446801C09E000BF00EA0703D1
:10A450005AF8212005EB8303401C491CDA60414572
:10A46000F4D34FEA164AFDF76DFD4AEA0041601C3D
:10A47000384005EB80003C4005EB8402C160D068A9
:10A4800066F3C50068F3891069F39F2020F003008C
:10A49000401C20F00400D06095F8200402E000BFCA
:10A4A000FEF7B2FD0028FBD1BDE8F88FC4310020D3
:10A4B0002DE9F84F1D4C00256846D4E901A6FDF7AB
:10A4C0004BFD002738B30023009A61681CE0D1F8E7
:10A4D00000C00846944503D9ACEB02020A6015E0BF
:10A4E000A2EB0C0263440760D0F80CC0C16981463E
:10A4F000BCF1000F08D006EB030828F07F48C0E944
:10A50000018CC9F81C5005460029E0D1284661603D
:10A51000FDF77CFE03E02846FDF778FE10B15046BB
:10A52000FDF7D0FBE770BDE8F88F0000482B002056
:10A530000D4B10B5596831B102680C68A24204D8BD
:10A54000A21A0A60C161586010BD0B4603E00B46B9
:10A55000C969121B21B10C689442F8D3A41A0C608B
:10A560000260C161D86110BD482B00202DE9F04187
:10A57000144E77683D462C4603E0844204D02546BD
:10A58000E469002CF9D11BE0D4B1A5420BD1F869E4
:10A59000706040B90C49012088600021B160F07002
:10A5A0002F20FFF73BFA2168E069E86110B10268EB
:10A5B000114401607068874202D00120BDE8F0813B
:10A5C0000020FBE7482B0020001001407CB5064628
:10A5D00000240D468DF800406846FCF7ADFB01A84D
:10A5E00000F080FA70B10570094946609DF80400DA
:10A5F00048709DF80000FCF7C3FB1420FBF7AAFF8E
:10A6000020467CBD04249DF80000FCF7B9FBF7E769
:10A61000F82F00202DE9F041194D6C68002C2CD04A
:10A62000184800270068A968B846401A20F07F46FD
:10A630002068B0420CD82146361A0744E469087CE9
:10A6400020B181F81080886949698847002CEFD1D2
:10A6500029786878814206D1401CC0B2687002280F
:10A6600001D185F80180064869780C3040F82170E6
:10A67000BDE8F0411420FBF76DBFBDE8F08100009C
:10A68000482B00200415014070B50C4605464FF4D8
:10A690008E71FFF778F9216AA068415C206A401C3E
:10A6A0002062C5F81C1570BD1FB500228DF8002072
:10A6B0000291816801914261D0E900126846904799
:10A6C0001FBD000000B589B00D48069000208DF830
:10A6D00014008DF8150006210822CDE9001207228A
:10A6E00002920522CDE903208DF81C1001208DF87F
:10A6F0001D00002269460348FEF71AFA09B000BDA2
:10A7000000E0D701C42A00201FB50A4601788DF861
:10A71000001041680191017A8DF80810C06803901B
:10A72000044850F82210001F50F822206846904735
:10A730001FBD00000C2B00202DE9FF470C460546ED
:10A740004FF40071FFF725F901274FF40178002637
:10A7500018B34FF4927949462846FFF70FF9E0B154
:10A7600049462846FFF70FF9C5F8088394F82900F1
:10A7700000B96F6002208DF80000D5F88004C5F89C
:10A7800080040390A0690290E0680190A661E661F0
:10A79000D4E900126846904728E004212846FFF7D4
:10A7A000F8F818B34FF484712846FFF7E7F8E8B1DA
:10A7B00021462846FFF7ECFC616AA069884215D162
:10A7C000E06938B1E268616AA0612069E6616662A9
:10A7D000E06008E094F8290000B96F60C5F80883CC
:10A7E000A661E268616A2046FFF7F6FC4FF48E78B6
:10A7F00041462846FFF7C2F878B1206A616988426D
:10A8000002D294F8280020B341462846FFF7BBF84F
:10A81000616911B12046FFF747FF4FF4A278414626
:10A820002846FFF7ABF8002818D041462846FFF726
:10A83000AAF894F8290000B12F60A06900280DD073
:10A84000A661E268616A04B02046BDE8F047FFF700
:10A85000C3BC21462846FFF717FFDEE7BDE8FF87A8
:10A860001FB50A4601788DF8001041680191017A00
:10A870008DF80810C0680390044850F82210001F9B
:10A8800050F82220684690471FBD00000C2B002086
:10A890002DE9FF410C464FF4927706463946FFF703
:10A8A0007EF80025B8B139463046FFF77DF8022022
:10A8B0008DF80000D6F88004C6F880040390D6F81E
:10A8C0003C050290E0680190A561E561D4E90012C1
:10A8D0006846904723E04FF4887739463046FFF7C3
:10A8E0005EF8E0B139463046FFF75EF8D6F83C1521
:10A8F000A069884213D1E06960B1E268D6F800022D
:10A9000020F02000C6F80002E069A0612069E5613E
:10A91000E06001E0A561E2682046FFF752FC4FF4D9
:10A92000A27739463046FFF73AF868B139463046E3
:10A93000FFF73AF8A06938B1A561E561D6F83C1592
:10A940002046E268FFF73DFC4FF4907739463046E9
:10A95000FFF725F8002812D039463046FFF724F8D3
:10A96000606900280BD0D6F84C058DF80050029095
:10A97000A06801906561D4E9001268469047BDE87F
:10A98000FF810870000A4870022070472DE9F05FCF
:10A990008346DDE90A4A994690460D460846012756
:10A9A00003E000BFB0FBF8F07F1C4045FAD2B94588
:10A9B00000D94F465FEACA7012D18CB15FEA8A7043
:10A9C00002D5B9F1000F01D0202607E0302605E0BE
:10A9D00031465846641EFDF761F80CB1A742F7D323
:10A9E0005FF00106B9F1010F02D9A9F1010903E0F5
:10A9F000B5FBF6F0404502D306FB08F6F2E7DFF8B8
:10AA00003C9000BFB5FBF6F000FB165519F800109E
:10AA10005846FDF743F8B6FBF8F6002EF2D15FEA90
:10AA2000CA7009D0002C07D0A74205D22021584671
:10AA3000641EFDF733F8F5E7BDE8F09F3CAC02007B
:10AA4000F8B5054680B2FDF7FDFA040013D0154EA7
:10AA5000207A0027317B88420ED2A8B204F10A0185
:10AA600075DF28B1112806D0BDE8F840FFF716BC05
:10AA7000207A401C2072F8BD2772307C38B1A8B211
:10AA80003B2176DF18B1082801D0FFF707FC716978
:10AA90000029F0D08DF80070ADF802506846884764
:10AAA000F8BD00006C2E0020417939B190F85212A7
:10AAB00021B990F8540208B1012070470020704776
:10AAC00030B40446007A00280AD06088002166DF8E
:10AAD00028B1112802D0616830BC084701202072DB
:10AAE00030BC70470A494A788B78521CD2B29342E4
:10AAF00000D100220B78934201D1002070470270F0
:10AB0000487800EB400001EBC000001D70470000DA
:10AB1000F82F00202DE9FC411646DDE90854CDE967
:10AB200000541F468046022200F00CF8002807D18E
:10AB3000CDE900543B4610223146404600F002F871
:10AB4000BDE8FC812DE9FC5F0026DDE90C4B994650
:10AB500092468E4680462788354630E0D8F8040075
:10AB6000002200EB850069460068019001A864DFBF
:10AB7000002830D19DF8000050451FD10EB10021B2
:10AB800000E00221228808441118594522D846B90C
:10AB9000521C90B2208009F800E02088401C2080E0
:10ABA0000126218801A801EB0902694664DF00281B
:10ABB00011D120889DF80010084420806D1CB8F841
:10ABC0000000A842CADC56B12088C01B401E80B2DB
:10ABD000FF2802D90C20BDE8FC9F09F807000020DF
:10ABE000F9E70000770A000000000000770A000083
:10ABF000000000007ADA0000000000009ECADC2499
:10AC00000EE5A9E093F3A3B50000406E1D9C020081
:10AC1000799A0200000000500000000000000000CF
:10AC20000000000000000000000000000000000024
:10AC300018AC020030AC02000400000030313233A6
:10AC4000343536373839414243444546556E6B6E8C
:10AC50006F776E206572726F7220636F646500009B
:10AC60000000000000B3020001000000ACB10200CF
:10AC700002000000A0AF02000300000020B20200AA
:10AC80000400000074B202000500000054B102008C
:10AC900006000000F0B00200070000005CB20200F5
:10ACA0000800000068B1020009000000CCB10200F9
:10ACB0000A000000E8B202000B00000088AF0200AA
:10ACC0000C00000080B102000D00000050B3020033
:10ACD0000E0000004CB202000F00000088B202001B
:10ACE00010000000BCB202001100000064B30200BA
:10ACF0001200000038B3020013000000D4B20200BA
:10AD00008000000008B102008100000044B0020091
:10AD10008200000004B0020083000000E4AF0200E3
:10AD20008400000020B00200850000002CB1020069
:10AD30008600000034B2020090000000D0B0020093
:10AD400091000000C4AF02009200000094B1020024
:10AD5000008200009CB2020001820000E8B1020003
:10AD60000282000004B202000084000060B0020011
:10AD7000018400000CB3020002840000A8B00200AD
:10AD80000384000084B00200000000000000000006
:10AD90000338FDD870470000F98E0200F78E0200DC
:10ADA000F58E02000000000000000000000000001E
:10ADB0000338FDD8704700000000000000000000CC
:10ADC000000000000000000001000007B8AD020014
:10ADD000C8AD020008000000F0AD020000AE0200A5
:10ADE0000800000000AE020010AE020008000000E3
:10ADF0003CB7020044B70200000000000000000061
:10AE00002CB702003CB70200000000000000000068
:10AE1000DCB60200E4B60200E4B6020004B70200A9
:10AE200004B7020014B7020014B702001CB70200F6
:10AE3000982A002010AE020030AE02000800000088
:10AE40001CB7020024B7020024B702002CB702008E
:10AE500040AE020050AE020008000000004040403A
:10AE600040404040404041414141414040404040DD
:10AE70004040404040404040404040404005020289
:10AE80000202020202020202020202020220202048
:10AE900020202020202020020202020202029090A4
:10AEA00090909090101010101010101010101010A2
:10AEB00010101010101010100202020202028888F6
:10AEC0008888888808080808080808080808080802
:10AED00008080808080808080202020240000000EA
:10AEE0005DAE020073645F626C655F6761705F6492
:10AEF0006174615F6C656E6774685F7570646174BE
:10AF000065282920287265717565737429206F6E14
:10AF100020636F6E6E656374696F6E20307825787C
:10AF20002072657475726E65642025732E000000B2
:10AF30005468652072657175657374656420636F0C
:10AF40006D62696E6174696F6E206F66205458205F
:10AF5000616E64205258207061636B6574206C656B
:10AF60006E6774687320697320746F6F206C6F6EE6
:10AF700067206279202575206D6963726F73656340
:10AF80006F6E64732E0000004E52465F4552524F62
:10AF9000525F494E56414C49445F44415441000080
:10AFA0004E52465F4552524F525F534F46544445AE
:10AFB000564943455F4E4F545F454E41424C4544D0
:10AFC000000000004E52465F4552524F525F4645C8
:10AFD00041545552455F4E4F545F454E41424C459A
:10AFE000440000004E52465F4552524F525F4D554D
:10AFF0005445585F554E4C4F434B5F4641494C4575
:10B00000440000004E52465F4552524F525F4D552C
:10B010005445585F4C4F434B5F4641494C454400B3
:10B020004E52465F4552524F525F4D555445585F00
:10B03000434F4E445F494E49545F4641494C454455
:10B04000000000004E52465F4552524F525F4D5530
:10B050005445585F494E49545F4641494C45440068
:10B060004E52465F4552524F525F424C455F4950E7
:10B0700053505F52585F504B545F5452554E4341AA
:10B08000544544004E52465F4552524F525F424C27
:10B09000455F495053505F504545525F52454A45C0
:10B0A00043544544000000004E52465F4552524F03
:10B0B000525F424C455F495053505F4C494E4B5F85
:10B0C000444953434F4E4E4543544544000000000D
:10B0D0004E52465F4552524F525F4150495F4E4F6C
:10B0E000545F494D504C454D454E54454400000079
:10B0F0004E52465F4552524F525F4E4F545F53552A
:10B1000050504F52544544004E52465F4552524FA4
:10B11000525F4D4F44554C455F4E4F545F494E4929
:10B120005449414C495A4544000000004E52465F84
:10B130004552524F525F4D4F44554C455F414C5222
:10B14000454144595F494E495449414C495A454447
:10B15000000000004E52465F4552524F525F4E4F24
:10B16000545F464F554E44004E52465F4552524F33
:10B17000525F494E56414C49445F53544154450037
:10B180004E52465F4552524F525F444154415F53C5
:10B19000495A45004E52465F4552524F525F494F01
:10B1A0005F50454E44494E47000000004E52465FF6
:10B1B0004552524F525F5356435F48414E444C45AF
:10B1C000525F4D495353494E470000004E52465F6F
:10B1D0004552524F525F494E56414C49445F4C458F
:10B1E0004E475448000000004E52465F4552524FB1
:10B1F000525F4452565F5457495F4552525F414E29
:10B2000041434B004E52465F4552524F525F4452AB
:10B21000565F5457495F4552525F444E41434B007D
:10B220004E52465F4552524F525F494E5445524E20
:10B23000414C00004E52465F4552524F525F5354AC
:10B240004F524147455F46554C4C00004E52465FB9
:10B250004552524F525F4E554C4C00004E52465F85
:10B260004552524F525F494E56414C49445F5041FE
:10B2700052414D004E52465F4552524F525F4E4F23
:10B280005F4D454D000000004E52465F4552524F03
:10B29000525F464F5242494444454E004E52465F2B
:10B2A0004552524F525F4452565F5457495F455280
:10B2B000525F4F56455252554E0000004E52465F67
:10B2C0004552524F525F494E56414C49445F4144AA
:10B2D000445200004E52465F4552524F525F524513
:10B2E000534F5552434553004E52465F4552524FBD
:10B2F000525F494E56414C49445F464C41475300CA
:10B300004E52465F53554343455353004E52465F9A
:10B310004552524F525F424C455F495053505F4334
:10B3200048414E4E454C5F414C52454144595F4562
:10B3300058495354530000004E52465F4552524FF5
:10B34000525F434F4E4E5F434F554E540000000036
:10B350004E52465F4552524F525F54494D454F55EC
:10B36000540000004E52465F4552524F525F4255C4
:10B37000535900007761726E696E6700646562758B
:10B38000670000001B5B313B33306D001B5B306D91
:10B39000000000001B5B313B33316D001B5B313B18
:10B3A00033326D001B5B313B33336D001B5B313B34
:10B3B00033346D001B5B313B33356D001B5B313B20
:10B3C00033366D001B5B313B33376D00696E666F42
:10B3D000000000006572726F7200000073645F62AB
:10B3E0006C655F6366675F73657428292072657496
:10B3F00075726E6564202573207768656E206174B0
:10B4000074656D7074696E6720746F207365742045
:10B41000424C455F47415454535F4346475F534551
:10B4200052564943455F4348414E4745442E00002C
:10B4300073645F626C655F6366675F736574282918
:10B440002072657475726E65642025732077686557
:10B450006E20617474656D7074696E6720746F20FE
:10B4600073657420424C455F434F4D4D4F4E5F43D3
:10B4700046475F56535F555549442E0073645F62DB
:10B480006C655F6366675F736574282920726574F5
:10B4900075726E6564202573207768656E2061740F
:10B4A00074656D7074696E6720746F2073657420A5
:10B4B000424C455F47415454535F4346475F4154B4
:10B4C00054525F5441425F53495A452E00000000D8
:10B4D00073645F626C655F6366675F736574282978
:10B4E0002072657475726E656420257320776865B7
:10B4F0006E20617474656D7074696E6720746F205E
:10B5000073657420424C455F434F4E4E5F43464740
:10B510005F4741502E00000073645F626C655F639B
:10B5200066675F73657428292072657475726E652D
:10B5300064202573207768656E20617474656D7072
:10B5400074696E6720746F2073657420424C455F88
:10B550004741505F4346475F524F4C455F434F550D
:10B560004E542E0073645F626C655F6366675F7341
:10B57000657428292072657475726E656420257360
:10B58000207768656E20617474656D7074696E678C
:10B5900020746F2073657420424C455F434F4E4EBC
:10B5A0005F4346475F474154542E00006E72665F0A
:10B5B000626C655F6761747400000000626C655FB7
:10B5C0006E757300636C6F636B000000434C4F43F8
:10B5D0004B00000055415254450000005541525463
:10B5E000000000004750494F54450000505253009E
:10B5F0007077725F6D676D7400000000617070009D
:10B600007274745F6C6F675F6261636B656E640018
:10B610006E72665F736468006E72665F7364685F03
:10B62000626C65006E72665F7364685F736F63005F
:10B6300044B70200982A002028010000586A02003E
:10B640006CB80200C02B0020F02C0000686A0200D9
:10B6500098AD02000000000000B60200B02B0020F0
:10B66000ACB5020000000303BCB5020000000000FE
:10B67000C4B5020000000000CCB5020000000000CC
:10B68000D4B5020000000000DCB50200000000009C
:10B69000E4B5020000000000ECB50200000000006C
:10B6A000F0B5020000000000FCB50200000003033A
:10B6B00010B602000000030318B6020000000303E6
:10B6C00024B6020000000303A42B00209C2B0020C2
:10B6D000A42B00200431002018000000797702001C
:10B6E0000000000069880200C02B0020FB710200EE
:10B6F000E02B00200D760200000000007D760200A5
:10B700000000000051790200A82A0020F3890200FD
:10B71000D42B00208575020000000000B5A30200B4
:10B720000000000065720200E02B0020A1970200DB
:10B7300000000000A598020000000000F1A1020036
:10B7400000000000D82A002001000400FFFF1400C0
:10B7500001000200000000000000000000000000E6
:10B760000000000000000000982A002000000000F7
:10B770000000000000200040000000000020004009
:10B7800000000000000000000000000000000000B9
:10B7900000000000000000000000000000000000A9
:10B7A0000000000000000000000000000000000099
:10B7B0000000000000000000000000000000000089
:10B7C0000000000000000000000000000000000079
:10B7D0000000000000000000000000000000000069
:10B7E0000000000000200040000000000020004099
:10B7F0000000000000000000000000000000000049
:10B800000000000000000000000000000000000038
:10B8100000000000D4B3020074B30200CCB30200F5
:10B820007CB302008CB3020084B3020094B3020024
:10B830009CB30200A4B30200ACB30200B4B3020094
:10B84000BCB30200C4B3020000000000000000000E
:10B8500000000000000000000000000000000000E8
:0CB86000FF000000000000000090D0037A
:040000050002620192
:00000001FF
